{
  "_format": "hh-sol-artifact-1",
  "contractName": "Felisians",
  "sourceName": "contracts/Felisians.sol",
  "abi": [
    {
      "inputs": [
        {
          "internalType": "address",
          "name": "operator_",
          "type": "address"
        },
        {
          "internalType": "address",
          "name": "signer_",
          "type": "address"
        },
        {
          "internalType": "string",
          "name": "baseURI_",
          "type": "string"
        }
      ],
      "stateMutability": "nonpayable",
      "type": "constructor"
    },
    {
      "anonymous": false,
      "inputs": [
        {
          "indexed": true,
          "internalType": "address",
          "name": "owner",
          "type": "address"
        },
        {
          "indexed": true,
          "internalType": "address",
          "name": "approved",
          "type": "address"
        },
        {
          "indexed": true,
          "internalType": "uint256",
          "name": "tokenId",
          "type": "uint256"
        }
      ],
      "name": "Approval",
      "type": "event"
    },
    {
      "anonymous": false,
      "inputs": [
        {
          "indexed": true,
          "internalType": "address",
          "name": "owner",
          "type": "address"
        },
        {
          "indexed": true,
          "internalType": "address",
          "name": "operator",
          "type": "address"
        },
        {
          "indexed": false,
          "internalType": "bool",
          "name": "approved",
          "type": "bool"
        }
      ],
      "name": "ApprovalForAll",
      "type": "event"
    },
    {
      "anonymous": false,
      "inputs": [
        {
          "indexed": false,
          "internalType": "address",
          "name": "registerer",
          "type": "address"
        },
        {
          "indexed": true,
          "internalType": "uint256",
          "name": "tokenId",
          "type": "uint256"
        },
        {
          "indexed": false,
          "internalType": "string",
          "name": "tokenDna",
          "type": "string"
        }
      ],
      "name": "DnaRegistered",
      "type": "event"
    },
    {
      "anonymous": false,
      "inputs": [
        {
          "indexed": true,
          "internalType": "address",
          "name": "previousOwner",
          "type": "address"
        },
        {
          "indexed": true,
          "internalType": "address",
          "name": "newOwner",
          "type": "address"
        }
      ],
      "name": "OwnershipTransferred",
      "type": "event"
    },
    {
      "anonymous": false,
      "inputs": [
        {
          "indexed": true,
          "internalType": "address",
          "name": "from",
          "type": "address"
        },
        {
          "indexed": true,
          "internalType": "address",
          "name": "to",
          "type": "address"
        },
        {
          "indexed": true,
          "internalType": "uint256",
          "name": "tokenId",
          "type": "uint256"
        }
      ],
      "name": "Transfer",
      "type": "event"
    },
    {
      "anonymous": false,
      "inputs": [
        {
          "indexed": false,
          "internalType": "address",
          "name": "operator",
          "type": "address"
        }
      ],
      "name": "UpdateOperator",
      "type": "event"
    },
    {
      "anonymous": false,
      "inputs": [
        {
          "indexed": false,
          "internalType": "address",
          "name": "signer",
          "type": "address"
        }
      ],
      "name": "UpdateSigner",
      "type": "event"
    },
    {
      "inputs": [
        {
          "internalType": "address",
          "name": "to",
          "type": "address"
        },
        {
          "internalType": "uint256",
          "name": "tokenId",
          "type": "uint256"
        }
      ],
      "name": "approve",
      "outputs": [],
      "stateMutability": "nonpayable",
      "type": "function"
    },
    {
      "inputs": [
        {
          "internalType": "address",
          "name": "owner",
          "type": "address"
        }
      ],
      "name": "balanceOf",
      "outputs": [
        {
          "internalType": "uint256",
          "name": "",
          "type": "uint256"
        }
      ],
      "stateMutability": "view",
      "type": "function"
    },
    {
      "inputs": [],
      "name": "baseURI",
      "outputs": [
        {
          "internalType": "string",
          "name": "",
          "type": "string"
        }
      ],
      "stateMutability": "view",
      "type": "function"
    },
    {
      "inputs": [
        {
          "internalType": "uint256",
          "name": "tokenId",
          "type": "uint256"
        }
      ],
      "name": "burn",
      "outputs": [],
      "stateMutability": "nonpayable",
      "type": "function"
    },
    {
      "inputs": [
        {
          "internalType": "uint256",
          "name": "tokenId",
          "type": "uint256"
        }
      ],
      "name": "getApproved",
      "outputs": [
        {
          "internalType": "address",
          "name": "",
          "type": "address"
        }
      ],
      "stateMutability": "view",
      "type": "function"
    },
    {
      "inputs": [
        {
          "internalType": "uint256",
          "name": "tokenId",
          "type": "uint256"
        }
      ],
      "name": "getTokenDna",
      "outputs": [
        {
          "internalType": "string",
          "name": "",
          "type": "string"
        }
      ],
      "stateMutability": "view",
      "type": "function"
    },
    {
      "inputs": [
        {
          "internalType": "address",
          "name": "owner",
          "type": "address"
        },
        {
          "internalType": "address",
          "name": "operator",
          "type": "address"
        }
      ],
      "name": "isApprovedForAll",
      "outputs": [
        {
          "internalType": "bool",
          "name": "",
          "type": "bool"
        }
      ],
      "stateMutability": "view",
      "type": "function"
    },
    {
      "inputs": [],
      "name": "name",
      "outputs": [
        {
          "internalType": "string",
          "name": "",
          "type": "string"
        }
      ],
      "stateMutability": "view",
      "type": "function"
    },
    {
      "inputs": [],
      "name": "owner",
      "outputs": [
        {
          "internalType": "address",
          "name": "",
          "type": "address"
        }
      ],
      "stateMutability": "view",
      "type": "function"
    },
    {
      "inputs": [
        {
          "internalType": "uint256",
          "name": "tokenId",
          "type": "uint256"
        }
      ],
      "name": "ownerOf",
      "outputs": [
        {
          "internalType": "address",
          "name": "",
          "type": "address"
        }
      ],
      "stateMutability": "view",
      "type": "function"
    },
    {
      "inputs": [
        {
          "internalType": "uint256[]",
          "name": "tokenIds",
          "type": "uint256[]"
        },
        {
          "internalType": "string[]",
          "name": "tokenDnas",
          "type": "string[]"
        },
        {
          "internalType": "bytes",
          "name": "dnaSig",
          "type": "bytes"
        }
      ],
      "name": "registerDna",
      "outputs": [],
      "stateMutability": "nonpayable",
      "type": "function"
    },
    {
      "inputs": [
        {
          "internalType": "uint256[]",
          "name": "tokenIds",
          "type": "uint256[]"
        },
        {
          "internalType": "string[]",
          "name": "tokenDnas",
          "type": "string[]"
        }
      ],
      "name": "registerDnaByOwner",
      "outputs": [],
      "stateMutability": "nonpayable",
      "type": "function"
    },
    {
      "inputs": [],
      "name": "renounceOwnership",
      "outputs": [],
      "stateMutability": "nonpayable",
      "type": "function"
    },
    {
      "inputs": [
        {
          "internalType": "address",
          "name": "to",
          "type": "address"
        },
        {
          "internalType": "uint256",
          "name": "amount",
          "type": "uint256"
        }
      ],
      "name": "safeMint",
      "outputs": [],
      "stateMutability": "nonpayable",
      "type": "function"
    },
    {
      "inputs": [
        {
          "internalType": "address",
          "name": "from",
          "type": "address"
        },
        {
          "internalType": "address",
          "name": "to",
          "type": "address"
        },
        {
          "internalType": "uint256",
          "name": "tokenId",
          "type": "uint256"
        }
      ],
      "name": "safeTransferFrom",
      "outputs": [],
      "stateMutability": "nonpayable",
      "type": "function"
    },
    {
      "inputs": [
        {
          "internalType": "address",
          "name": "from",
          "type": "address"
        },
        {
          "internalType": "address",
          "name": "to",
          "type": "address"
        },
        {
          "internalType": "uint256",
          "name": "tokenId",
          "type": "uint256"
        },
        {
          "internalType": "bytes",
          "name": "_data",
          "type": "bytes"
        }
      ],
      "name": "safeTransferFrom",
      "outputs": [],
      "stateMutability": "nonpayable",
      "type": "function"
    },
    {
      "inputs": [
        {
          "internalType": "address",
          "name": "operator",
          "type": "address"
        },
        {
          "internalType": "bool",
          "name": "approved",
          "type": "bool"
        }
      ],
      "name": "setApprovalForAll",
      "outputs": [],
      "stateMutability": "nonpayable",
      "type": "function"
    },
    {
      "inputs": [
        {
          "internalType": "string",
          "name": "baseURI_",
          "type": "string"
        }
      ],
      "name": "setBaseURI",
      "outputs": [],
      "stateMutability": "nonpayable",
      "type": "function"
    },
    {
      "inputs": [
        {
          "internalType": "address",
          "name": "operator_",
          "type": "address"
        }
      ],
      "name": "setOperator",
      "outputs": [],
      "stateMutability": "nonpayable",
      "type": "function"
    },
    {
      "inputs": [
        {
          "internalType": "address",
          "name": "signer_",
          "type": "address"
        }
      ],
      "name": "setSigner",
      "outputs": [],
      "stateMutability": "nonpayable",
      "type": "function"
    },
    {
      "inputs": [
        {
          "internalType": "bytes4",
          "name": "interfaceId",
          "type": "bytes4"
        }
      ],
      "name": "supportsInterface",
      "outputs": [
        {
          "internalType": "bool",
          "name": "",
          "type": "bool"
        }
      ],
      "stateMutability": "view",
      "type": "function"
    },
    {
      "inputs": [],
      "name": "symbol",
      "outputs": [
        {
          "internalType": "string",
          "name": "",
          "type": "string"
        }
      ],
      "stateMutability": "view",
      "type": "function"
    },
    {
      "inputs": [
        {
          "internalType": "uint256",
          "name": "index",
          "type": "uint256"
        }
      ],
      "name": "tokenByIndex",
      "outputs": [
        {
          "internalType": "uint256",
          "name": "",
          "type": "uint256"
        }
      ],
      "stateMutability": "view",
      "type": "function"
    },
    {
      "inputs": [
        {
          "internalType": "address",
          "name": "owner",
          "type": "address"
        },
        {
          "internalType": "uint256",
          "name": "index",
          "type": "uint256"
        }
      ],
      "name": "tokenOfOwnerByIndex",
      "outputs": [
        {
          "internalType": "uint256",
          "name": "",
          "type": "uint256"
        }
      ],
      "stateMutability": "view",
      "type": "function"
    },
    {
      "inputs": [
        {
          "internalType": "uint256",
          "name": "tokenId",
          "type": "uint256"
        }
      ],
      "name": "tokenURI",
      "outputs": [
        {
          "internalType": "string",
          "name": "",
          "type": "string"
        }
      ],
      "stateMutability": "view",
      "type": "function"
    },
    {
      "inputs": [
        {
          "internalType": "address",
          "name": "owner",
          "type": "address"
        }
      ],
      "name": "tokensOfOwner",
      "outputs": [
        {
          "internalType": "uint256[]",
          "name": "",
          "type": "uint256[]"
        }
      ],
      "stateMutability": "view",
      "type": "function"
    },
    {
      "inputs": [],
      "name": "totalSupply",
      "outputs": [
        {
          "internalType": "uint256",
          "name": "",
          "type": "uint256"
        }
      ],
      "stateMutability": "view",
      "type": "function"
    },
    {
      "inputs": [
        {
          "internalType": "address",
          "name": "from",
          "type": "address"
        },
        {
          "internalType": "address",
          "name": "to",
          "type": "address"
        },
        {
          "internalType": "uint256",
          "name": "tokenId",
          "type": "uint256"
        }
      ],
      "name": "transferFrom",
      "outputs": [],
      "stateMutability": "nonpayable",
      "type": "function"
    },
    {
      "inputs": [
        {
          "internalType": "address",
          "name": "newOwner",
          "type": "address"
        }
      ],
      "name": "transferOwnership",
      "outputs": [],
      "stateMutability": "nonpayable",
      "type": "function"
    }
  ],
  "bytecode": "0x60806040523480156200001157600080fd5b5060405162005582380380620055828339818101604052810190620000379190620003a2565b6040518060400160405280600981526020017f46656c697369616e7300000000000000000000000000000000000000000000008152506040518060400160405280600981526020017f46454c495349414e5300000000000000000000000000000000000000000000008152508160009080519060200190620000bb92919062000269565b508060019080519060200190620000d492919062000269565b505050620000f7620000eb6200019b60201b60201c565b620001a360201b60201c565b82600b60006101000a81548173ffffffffffffffffffffffffffffffffffffffff021916908373ffffffffffffffffffffffffffffffffffffffff16021790555081600c60006101000a81548173ffffffffffffffffffffffffffffffffffffffff021916908373ffffffffffffffffffffffffffffffffffffffff16021790555080600e90805190602001906200019192919062000269565b50505050620005cf565b600033905090565b6000600a60009054906101000a900473ffffffffffffffffffffffffffffffffffffffff16905081600a60006101000a81548173ffffffffffffffffffffffffffffffffffffffff021916908373ffffffffffffffffffffffffffffffffffffffff1602179055508173ffffffffffffffffffffffffffffffffffffffff168173ffffffffffffffffffffffffffffffffffffffff167f8be0079c531659141344cd1fd0a4f28419497f9722a3daafe3b4186f6b6457e060405160405180910390a35050565b8280546200027790620004da565b90600052602060002090601f0160209004810192826200029b5760008555620002e7565b82601f10620002b657805160ff1916838001178555620002e7565b82800160010185558215620002e7579182015b82811115620002e6578251825591602001919060010190620002c9565b5b509050620002f69190620002fa565b5090565b5b8082111562000315576000816000905550600101620002fb565b5090565b6000620003306200032a846200043a565b62000411565b9050828152602081018484840111156200034957600080fd5b62000356848285620004a4565b509392505050565b6000815190506200036f81620005b5565b92915050565b600082601f8301126200038757600080fd5b81516200039984826020860162000319565b91505092915050565b600080600060608486031215620003b857600080fd5b6000620003c8868287016200035e565b9350506020620003db868287016200035e565b925050604084015167ffffffffffffffff811115620003f957600080fd5b620004078682870162000375565b9150509250925092565b60006200041d62000430565b90506200042b828262000510565b919050565b6000604051905090565b600067ffffffffffffffff82111562000458576200045762000575565b5b6200046382620005a4565b9050602081019050919050565b60006200047d8262000484565b9050919050565b600073ffffffffffffffffffffffffffffffffffffffff82169050919050565b60005b83811015620004c4578082015181840152602081019050620004a7565b83811115620004d4576000848401525b50505050565b60006002820490506001821680620004f357607f821691505b602082108114156200050a576200050962000546565b5b50919050565b6200051b82620005a4565b810181811067ffffffffffffffff821117156200053d576200053c62000575565b5b80604052505050565b7f4e487b7100000000000000000000000000000000000000000000000000000000600052602260045260246000fd5b7f4e487b7100000000000000000000000000000000000000000000000000000000600052604160045260246000fd5b6000601f19601f8301169050919050565b620005c08162000470565b8114620005cc57600080fd5b50565b614fa380620005df6000396000f3fe608060405234801561001057600080fd5b50600436106101cf5760003560e01c80636c19e78311610104578063a1448194116100a2578063c87b56dd11610071578063c87b56dd14610528578063e985e9c514610558578063eb436c0614610588578063f2fde38b146105a4576101cf565b8063a1448194146104b8578063a22cb465146104d4578063b3ab15fb146104f0578063b88d4fde1461050c576101cf565b80638462151c116100de5780638462151c146104305780638b2b1410146104605780638da5cb5b1461047c57806395d89b411461049a576101cf565b80636c19e783146103da57806370a08231146103f6578063715018a614610426576101cf565b80632f745c59116101715780634f6ccce71161014b5780634f6ccce71461034057806355f804b3146103705780636352211e1461038c5780636c0360eb146103bc576101cf565b80632f745c59146102d857806342842e0e1461030857806342966c6814610324576101cf565b8063081812fc116101ad578063081812fc14610252578063095ea7b31461028257806318160ddd1461029e57806323b872dd146102bc576101cf565b806301ffc9a7146101d45780630599f1131461020457806306fdde0314610234575b600080fd5b6101ee60048036038101906101e9919061379d565b6105c0565b6040516101fb9190614023565b60405180910390f35b61021e60048036038101906102199190613830565b6105d2565b60405161022b9190614083565b60405180910390f35b61023c610709565b6040516102499190614083565b60405180910390f35b61026c60048036038101906102679190613830565b61079b565b6040516102799190613f6a565b60405180910390f35b61029c6004803603810190610297919061365e565b610820565b005b6102a6610938565b6040516102b391906143c5565b60405180910390f35b6102d660048036038101906102d19190613558565b610945565b005b6102f260048036038101906102ed919061365e565b6109a5565b6040516102ff91906143c5565b60405180910390f35b610322600480360381019061031d9190613558565b610a4a565b005b61033e60048036038101906103399190613830565b610a6a565b005b61035a60048036038101906103559190613830565b610ac6565b60405161036791906143c5565b60405180910390f35b61038a600480360381019061038591906137ef565b610b5d565b005b6103a660048036038101906103a19190613830565b610bf3565b6040516103b39190613f6a565b60405180910390f35b6103c4610ca5565b6040516103d19190614083565b60405180910390f35b6103f460048036038101906103ef91906134f3565b610d33565b005b610410600480360381019061040b91906134f3565b610e2a565b60405161041d91906143c5565b60405180910390f35b61042e610ee2565b005b61044a600480360381019061044591906134f3565b610f6a565b6040516104579190614001565b60405180910390f35b61047a6004803603810190610475919061369a565b611064565b005b6104846112b1565b6040516104919190613f6a565b60405180910390f35b6104a26112db565b6040516104af9190614083565b60405180910390f35b6104d260048036038101906104cd919061365e565b61136d565b005b6104ee60048036038101906104e99190613622565b611491565b005b61050a600480360381019061050591906134f3565b611612565b005b610526600480360381019061052191906135a7565b611709565b005b610542600480360381019061053d9190613830565b61176b565b60405161054f9190614083565b60405180910390f35b610572600480360381019061056d919061351c565b611838565b60405161057f9190614023565b60405180910390f35b6105a2600480360381019061059d9190613706565b6118cc565b005b6105be60048036038101906105b991906134f3565b611b44565b005b60006105cb82611c3c565b9050919050565b60606105dd82611cb6565b61061c576040517f08c379a0000000000000000000000000000000000000000000000000000000008152600401610613906140a5565b60405180910390fd5b6000600f6000848152602001908152602001600020805461063c906146ee565b80601f0160208091040260200160405190810160405280929190818152602001828054610668906146ee565b80156106b55780601f1061068a576101008083540402835291602001916106b5565b820191906000526020600020905b81548152906001019060200180831161069857829003601f168201915b505050505090506000815111610700576040517f08c379a00000000000000000000000000000000000000000000000000000000081526004016106f790614385565b60405180910390fd5b80915050919050565b606060008054610718906146ee565b80601f0160208091040260200160405190810160405280929190818152602001828054610744906146ee565b80156107915780601f1061076657610100808354040283529160200191610791565b820191906000526020600020905b81548152906001019060200180831161077457829003601f168201915b5050505050905090565b60006107a682611cb6565b6107e5576040517f08c379a00000000000000000000000000000000000000000000000000000000081526004016107dc90614285565b60405180910390fd5b6004600083815260200190815260200160002060009054906101000a900473ffffffffffffffffffffffffffffffffffffffff169050919050565b600061082b82610bf3565b90508073ffffffffffffffffffffffffffffffffffffffff168373ffffffffffffffffffffffffffffffffffffffff16141561089c576040517f08c379a000000000000000000000000000000000000000000000000000000000815260040161089390614305565b60405180910390fd5b8073ffffffffffffffffffffffffffffffffffffffff166108bb611d22565b73ffffffffffffffffffffffffffffffffffffffff1614806108ea57506108e9816108e4611d22565b611838565b5b610929576040517f08c379a000000000000000000000000000000000000000000000000000000000815260040161092090614205565b60405180910390fd5b6109338383611d2a565b505050565b6000600880549050905090565b610956610950611d22565b82611de3565b610995576040517f08c379a000000000000000000000000000000000000000000000000000000000815260040161098c90614325565b60405180910390fd5b6109a0838383611ec1565b505050565b60006109b083610e2a565b82106109f1576040517f08c379a00000000000000000000000000000000000000000000000000000000081526004016109e8906140c5565b60405180910390fd5b600660008473ffffffffffffffffffffffffffffffffffffffff1673ffffffffffffffffffffffffffffffffffffffff168152602001908152602001600020600083815260200190815260200160002054905092915050565b610a6583838360405180602001604052806000815250611709565b505050565b610a7b610a75611d22565b82611de3565b610aba576040517f08c379a0000000000000000000000000000000000000000000000000000000008152600401610ab1906143a5565b60405180910390fd5b610ac38161211d565b50565b6000610ad0610938565b8210610b11576040517f08c379a0000000000000000000000000000000000000000000000000000000008152600401610b0890614365565b60405180910390fd5b60088281548110610b4b577f4e487b7100000000000000000000000000000000000000000000000000000000600052603260045260246000fd5b90600052602060002001549050919050565b610b65611d22565b73ffffffffffffffffffffffffffffffffffffffff16610b836112b1565b73ffffffffffffffffffffffffffffffffffffffff1614610bd9576040517f08c379a0000000000000000000000000000000000000000000000000000000008152600401610bd0906142a5565b60405180910390fd5b80600e9080519060200190610bef9291906131fa565b5050565b6000806002600084815260200190815260200160002060009054906101000a900473ffffffffffffffffffffffffffffffffffffffff169050600073ffffffffffffffffffffffffffffffffffffffff168173ffffffffffffffffffffffffffffffffffffffff161415610c9c576040517f08c379a0000000000000000000000000000000000000000000000000000000008152600401610c9390614245565b60405180910390fd5b80915050919050565b600e8054610cb2906146ee565b80601f0160208091040260200160405190810160405280929190818152602001828054610cde906146ee565b8015610d2b5780601f10610d0057610100808354040283529160200191610d2b565b820191906000526020600020905b815481529060010190602001808311610d0e57829003601f168201915b505050505081565b610d3b611d22565b73ffffffffffffffffffffffffffffffffffffffff16610d596112b1565b73ffffffffffffffffffffffffffffffffffffffff1614610daf576040517f08c379a0000000000000000000000000000000000000000000000000000000008152600401610da6906142a5565b60405180910390fd5b80600c60006101000a81548173ffffffffffffffffffffffffffffffffffffffff021916908373ffffffffffffffffffffffffffffffffffffffff1602179055507fc58fcf255cfb5f40bd578a618869378f650ef76609640fa0818a31e0c6e7102a81604051610e1f9190613f6a565b60405180910390a150565b60008073ffffffffffffffffffffffffffffffffffffffff168273ffffffffffffffffffffffffffffffffffffffff161415610e9b576040517f08c379a0000000000000000000000000000000000000000000000000000000008152600401610e9290614225565b60405180910390fd5b600360008373ffffffffffffffffffffffffffffffffffffffff1673ffffffffffffffffffffffffffffffffffffffff168152602001908152602001600020549050919050565b610eea611d22565b73ffffffffffffffffffffffffffffffffffffffff16610f086112b1565b73ffffffffffffffffffffffffffffffffffffffff1614610f5e576040517f08c379a0000000000000000000000000000000000000000000000000000000008152600401610f55906142a5565b60405180910390fd5b610f68600061222e565b565b60606000610f7783610e2a565b905060008167ffffffffffffffff811115610fbb577f4e487b7100000000000000000000000000000000000000000000000000000000600052604160045260246000fd5b604051908082528060200260200182016040528015610fe95781602001602082028036833780820191505090505b50905060005b828110156110595761100185826109a5565b82828151811061103a577f4e487b7100000000000000000000000000000000000000000000000000000000600052603260045260246000fd5b602002602001018181525050808061105190614751565b915050610fef565b508092505050919050565b61106c611d22565b73ffffffffffffffffffffffffffffffffffffffff1661108a6112b1565b73ffffffffffffffffffffffffffffffffffffffff16146110e0576040517f08c379a00000000000000000000000000000000000000000000000000000000081526004016110d7906142a5565b60405180910390fd5b8051825114611124576040517f08c379a000000000000000000000000000000000000000000000000000000000815260040161111b90614165565b60405180910390fd5b60005b82518110156112ac57818181518110611169577f4e487b7100000000000000000000000000000000000000000000000000000000600052603260045260246000fd5b6020026020010151600f60008584815181106111ae577f4e487b7100000000000000000000000000000000000000000000000000000000600052603260045260246000fd5b6020026020010151815260200190815260200160002090805190602001906111d79291906131fa565b50828181518110611211577f4e487b7100000000000000000000000000000000000000000000000000000000600052603260045260246000fd5b60200260200101517f2965527aedf6cc083518679d012da0acc01fdf184c7899da06eecb9591168706611242611d22565b84848151811061127b577f4e487b7100000000000000000000000000000000000000000000000000000000600052603260045260246000fd5b6020026020010151604051611291929190613fd1565b60405180910390a280806112a490614751565b915050611127565b505050565b6000600a60009054906101000a900473ffffffffffffffffffffffffffffffffffffffff16905090565b6060600180546112ea906146ee565b80601f0160208091040260200160405190810160405280929190818152602001828054611316906146ee565b80156113635780601f1061133857610100808354040283529160200191611363565b820191906000526020600020905b81548152906001019060200180831161134657829003601f168201915b5050505050905090565b6000611377611d22565b9050600b60009054906101000a900473ffffffffffffffffffffffffffffffffffffffff1673ffffffffffffffffffffffffffffffffffffffff168173ffffffffffffffffffffffffffffffffffffffff16148061140757506113d86112b1565b73ffffffffffffffffffffffffffffffffffffffff168173ffffffffffffffffffffffffffffffffffffffff16145b611446576040517f08c379a000000000000000000000000000000000000000000000000000000000815260040161143d906142c5565b60405180910390fd5b6000600d54905060005b838110156114835761146285836122f4565b818061146d90614751565b925050808061147b90614751565b915050611450565b5080600d8190555050505050565b611499611d22565b73ffffffffffffffffffffffffffffffffffffffff168273ffffffffffffffffffffffffffffffffffffffff161415611507576040517f08c379a00000000000000000000000000000000000000000000000000000000081526004016114fe906141a5565b60405180910390fd5b8060056000611514611d22565b73ffffffffffffffffffffffffffffffffffffffff1673ffffffffffffffffffffffffffffffffffffffff16815260200190815260200160002060008473ffffffffffffffffffffffffffffffffffffffff1673ffffffffffffffffffffffffffffffffffffffff16815260200190815260200160002060006101000a81548160ff0219169083151502179055508173ffffffffffffffffffffffffffffffffffffffff166115c1611d22565b73ffffffffffffffffffffffffffffffffffffffff167f17307eab39ab6107e8899845ad3d59bd9653f200f220920489ca2b5937696c31836040516116069190614023565b60405180910390a35050565b61161a611d22565b73ffffffffffffffffffffffffffffffffffffffff166116386112b1565b73ffffffffffffffffffffffffffffffffffffffff161461168e576040517f08c379a0000000000000000000000000000000000000000000000000000000008152600401611685906142a5565b60405180910390fd5b80600b60006101000a81548173ffffffffffffffffffffffffffffffffffffffff021916908373ffffffffffffffffffffffffffffffffffffffff1602179055507fff936929f68b51b2ddfe0c6fcc3e9c817996ae17a98869dd0754af1323f101ee816040516116fe9190613f6a565b60405180910390a150565b61171a611714611d22565b83611de3565b611759576040517f08c379a000000000000000000000000000000000000000000000000000000000815260040161175090614325565b60405180910390fd5b61176584848484612312565b50505050565b60606000600e805461177c906146ee565b9050116117be576040517f08c379a00000000000000000000000000000000000000000000000000000000081526004016117b590614145565b60405180910390fd5b6117c782611cb6565b611806576040517f08c379a00000000000000000000000000000000000000000000000000000000081526004016117fd906140a5565b60405180910390fd5b600e6118118361236e565b604051602001611822929190613f20565b6040516020818303038152906040529050919050565b6000600560008473ffffffffffffffffffffffffffffffffffffffff1673ffffffffffffffffffffffffffffffffffffffff16815260200190815260200160002060008373ffffffffffffffffffffffffffffffffffffffff1673ffffffffffffffffffffffffffffffffffffffff16815260200190815260200160002060009054906101000a900460ff16905092915050565b8151835114611910576040517f08c379a000000000000000000000000000000000000000000000000000000000815260040161190790614165565b60405180910390fd5b600061191a611d22565b90506000611928828661251b565b90508061196a576040517f08c379a0000000000000000000000000000000000000000000000000000000008152600401611961906142c5565b60405180910390fd5b6000611978838787876125d4565b9050806119ba576040517f08c379a00000000000000000000000000000000000000000000000000000000081526004016119b1906141c5565b60405180910390fd5b60005b8651811015611b3b578581815181106119ff577f4e487b7100000000000000000000000000000000000000000000000000000000600052603260045260246000fd5b6020026020010151600f6000898481518110611a44577f4e487b7100000000000000000000000000000000000000000000000000000000600052603260045260246000fd5b602002602001015181526020019081526020016000209080519060200190611a6d9291906131fa565b50868181518110611aa7577f4e487b7100000000000000000000000000000000000000000000000000000000600052603260045260246000fd5b60200260200101517f2965527aedf6cc083518679d012da0acc01fdf184c7899da06eecb959116870685888481518110611b0a577f4e487b7100000000000000000000000000000000000000000000000000000000600052603260045260246000fd5b6020026020010151604051611b20929190613fd1565b60405180910390a28080611b3390614751565b9150506119bd565b50505050505050565b611b4c611d22565b73ffffffffffffffffffffffffffffffffffffffff16611b6a6112b1565b73ffffffffffffffffffffffffffffffffffffffff1614611bc0576040517f08c379a0000000000000000000000000000000000000000000000000000000008152600401611bb7906142a5565b60405180910390fd5b600073ffffffffffffffffffffffffffffffffffffffff168173ffffffffffffffffffffffffffffffffffffffff161415611c30576040517f08c379a0000000000000000000000000000000000000000000000000000000008152600401611c2790614105565b60405180910390fd5b611c398161222e565b50565b60007f780e9d63000000000000000000000000000000000000000000000000000000007bffffffffffffffffffffffffffffffffffffffffffffffffffffffff1916827bffffffffffffffffffffffffffffffffffffffffffffffffffffffff19161480611caf5750611cae82612657565b5b9050919050565b60008073ffffffffffffffffffffffffffffffffffffffff166002600084815260200190815260200160002060009054906101000a900473ffffffffffffffffffffffffffffffffffffffff1673ffffffffffffffffffffffffffffffffffffffff1614159050919050565b600033905090565b816004600083815260200190815260200160002060006101000a81548173ffffffffffffffffffffffffffffffffffffffff021916908373ffffffffffffffffffffffffffffffffffffffff160217905550808273ffffffffffffffffffffffffffffffffffffffff16611d9d83610bf3565b73ffffffffffffffffffffffffffffffffffffffff167f8c5be1e5ebec7d5bd14f71427d1e84f3dd0314c0f7b2291e5b200ac8c7c3b92560405160405180910390a45050565b6000611dee82611cb6565b611e2d576040517f08c379a0000000000000000000000000000000000000000000000000000000008152600401611e24906141e5565b60405180910390fd5b6000611e3883610bf3565b90508073ffffffffffffffffffffffffffffffffffffffff168473ffffffffffffffffffffffffffffffffffffffff161480611ea757508373ffffffffffffffffffffffffffffffffffffffff16611e8f8461079b565b73ffffffffffffffffffffffffffffffffffffffff16145b80611eb85750611eb78185611838565b5b91505092915050565b8273ffffffffffffffffffffffffffffffffffffffff16611ee182610bf3565b73ffffffffffffffffffffffffffffffffffffffff1614611f37576040517f08c379a0000000000000000000000000000000000000000000000000000000008152600401611f2e906142e5565b60405180910390fd5b600073ffffffffffffffffffffffffffffffffffffffff168273ffffffffffffffffffffffffffffffffffffffff161415611fa7576040517f08c379a0000000000000000000000000000000000000000000000000000000008152600401611f9e90614185565b60405180910390fd5b611fb2838383612739565b611fbd600082611d2a565b6001600360008573ffffffffffffffffffffffffffffffffffffffff1673ffffffffffffffffffffffffffffffffffffffff168152602001908152602001600020600082825461200d91906145ed565b925050819055506001600360008473ffffffffffffffffffffffffffffffffffffffff1673ffffffffffffffffffffffffffffffffffffffff16815260200190815260200160002060008282546120649190614566565b92505081905550816002600083815260200190815260200160002060006101000a81548173ffffffffffffffffffffffffffffffffffffffff021916908373ffffffffffffffffffffffffffffffffffffffff160217905550808273ffffffffffffffffffffffffffffffffffffffff168473ffffffffffffffffffffffffffffffffffffffff167fddf252ad1be2c89b69c2b068fc378daa952ba7f163c4a11628f55a4df523b3ef60405160405180910390a4505050565b600061212882610bf3565b905061213681600084612739565b612141600083611d2a565b6001600360008373ffffffffffffffffffffffffffffffffffffffff1673ffffffffffffffffffffffffffffffffffffffff168152602001908152602001600020600082825461219191906145ed565b925050819055506002600083815260200190815260200160002060006101000a81549073ffffffffffffffffffffffffffffffffffffffff021916905581600073ffffffffffffffffffffffffffffffffffffffff168273ffffffffffffffffffffffffffffffffffffffff167fddf252ad1be2c89b69c2b068fc378daa952ba7f163c4a11628f55a4df523b3ef60405160405180910390a45050565b6000600a60009054906101000a900473ffffffffffffffffffffffffffffffffffffffff16905081600a60006101000a81548173ffffffffffffffffffffffffffffffffffffffff021916908373ffffffffffffffffffffffffffffffffffffffff1602179055508173ffffffffffffffffffffffffffffffffffffffff168173ffffffffffffffffffffffffffffffffffffffff167f8be0079c531659141344cd1fd0a4f28419497f9722a3daafe3b4186f6b6457e060405160405180910390a35050565b61230e828260405180602001604052806000815250612749565b5050565b61231d848484611ec1565b612329848484846127a4565b612368576040517f08c379a000000000000000000000000000000000000000000000000000000000815260040161235f906140e5565b60405180910390fd5b50505050565b606060008214156123b6576040518060400160405280600181526020017f30000000000000000000000000000000000000000000000000000000000000008152509050612516565b600082905060005b600082146123e85780806123d190614751565b915050600a826123e191906145bc565b91506123be565b60008167ffffffffffffffff81111561242a577f4e487b7100000000000000000000000000000000000000000000000000000000600052604160045260246000fd5b6040519080825280601f01601f19166020018201604052801561245c5781602001600182028036833780820191505090505b5090505b6000851461250f5760018261247591906145ed565b9150600a8561248491906147c8565b60306124909190614566565b60f81b8183815181106124cc577f4e487b7100000000000000000000000000000000000000000000000000000000600052603260045260246000fd5b60200101907effffffffffffffffffffffffffffffffffffffffffffffffffffffffffffff1916908160001a905350600a8561250891906145bc565b9450612460565b8093505050505b919050565b6000806001905060005b83518110156125c957600061257985838151811061256c577f4e487b7100000000000000000000000000000000000000000000000000000000600052603260045260246000fd5b6020026020010151610bf3565b90508280156125b357508573ffffffffffffffffffffffffffffffffffffffff168173ffffffffffffffffffffffffffffffffffffffff16145b92505080806125c190614751565b915050612525565b508091505092915050565b6000806125e286868661293b565b905060006125ef82612a17565b9050600c60009054906101000a900473ffffffffffffffffffffffffffffffffffffffff1673ffffffffffffffffffffffffffffffffffffffff166126348286612a47565b73ffffffffffffffffffffffffffffffffffffffff161492505050949350505050565b60007f80ac58cd000000000000000000000000000000000000000000000000000000007bffffffffffffffffffffffffffffffffffffffffffffffffffffffff1916827bffffffffffffffffffffffffffffffffffffffffffffffffffffffff1916148061272257507f5b5e139f000000000000000000000000000000000000000000000000000000007bffffffffffffffffffffffffffffffffffffffffffffffffffffffff1916827bffffffffffffffffffffffffffffffffffffffffffffffffffffffff1916145b80612732575061273182612ab6565b5b9050919050565b612744838383612b20565b505050565b6127538383612c34565b61276060008484846127a4565b61279f576040517f08c379a0000000000000000000000000000000000000000000000000000000008152600401612796906140e5565b60405180910390fd5b505050565b60006127c58473ffffffffffffffffffffffffffffffffffffffff16612e02565b1561292e578373ffffffffffffffffffffffffffffffffffffffff1663150b7a026127ee611d22565b8786866040518563ffffffff1660e01b81526004016128109493929190613f85565b602060405180830381600087803b15801561282a57600080fd5b505af192505050801561285b57506040513d601f19601f8201168201806040525081019061285891906137c6565b60015b6128de573d806000811461288b576040519150601f19603f3d011682016040523d82523d6000602084013e612890565b606091505b506000815114156128d6576040517f08c379a00000000000000000000000000000000000000000000000000000000081526004016128cd906140e5565b60405180910390fd5b805181602001fd5b63150b7a0260e01b7bffffffffffffffffffffffffffffffffffffffffffffffffffffffff1916817bffffffffffffffffffffffffffffffffffffffffffffffffffffffff191614915050612933565b600190505b949350505050565b6000808360405160200161294f9190613ee5565b604051602081830303815290604052905060005b83518110156129e357818482815181106129a6577f4e487b7100000000000000000000000000000000000000000000000000000000600052603260045260246000fd5b60200260200101516040516020016129bf929190613efc565b604051602081830303815290604052915080806129db90614751565b915050612963565b5084816040516020016129f7929190613ebd565b604051602081830303815290604052805190602001209150509392505050565b600081604051602001612a2a9190613f44565b604051602081830303815290604052805190602001209050919050565b600080600080612a5685612e15565b92509250925060018682858560405160008152602001604052604051612a7f949392919061403e565b6020604051602081039080840390855afa158015612aa1573d6000803e3d6000fd5b50505060206040510351935050505092915050565b60007f01ffc9a7000000000000000000000000000000000000000000000000000000007bffffffffffffffffffffffffffffffffffffffffffffffffffffffff1916827bffffffffffffffffffffffffffffffffffffffffffffffffffffffff1916149050919050565b612b2b838383612e7d565b600073ffffffffffffffffffffffffffffffffffffffff168373ffffffffffffffffffffffffffffffffffffffff161415612b6e57612b6981612e82565b612bad565b8173ffffffffffffffffffffffffffffffffffffffff168373ffffffffffffffffffffffffffffffffffffffff1614612bac57612bab8382612ecb565b5b5b600073ffffffffffffffffffffffffffffffffffffffff168273ffffffffffffffffffffffffffffffffffffffff161415612bf057612beb81613038565b612c2f565b8273ffffffffffffffffffffffffffffffffffffffff168273ffffffffffffffffffffffffffffffffffffffff1614612c2e57612c2d828261317b565b5b5b505050565b600073ffffffffffffffffffffffffffffffffffffffff168273ffffffffffffffffffffffffffffffffffffffff161415612ca4576040517f08c379a0000000000000000000000000000000000000000000000000000000008152600401612c9b90614265565b60405180910390fd5b612cad81611cb6565b15612ced576040517f08c379a0000000000000000000000000000000000000000000000000000000008152600401612ce490614125565b60405180910390fd5b612cf960008383612739565b6001600360008473ffffffffffffffffffffffffffffffffffffffff1673ffffffffffffffffffffffffffffffffffffffff1681526020019081526020016000206000828254612d499190614566565b92505081905550816002600083815260200190815260200160002060006101000a81548173ffffffffffffffffffffffffffffffffffffffff021916908373ffffffffffffffffffffffffffffffffffffffff160217905550808273ffffffffffffffffffffffffffffffffffffffff16600073ffffffffffffffffffffffffffffffffffffffff167fddf252ad1be2c89b69c2b068fc378daa952ba7f163c4a11628f55a4df523b3ef60405160405180910390a45050565b600080823b905060008111915050919050565b60008060006041845114612e5e576040517f08c379a0000000000000000000000000000000000000000000000000000000008152600401612e5590614345565b60405180910390fd5b6020840151925060408401519150606084015160001a90509193909250565b505050565b6008805490506009600083815260200190815260200160002081905550600881908060018154018082558091505060019003906000526020600020016000909190919091505550565b60006001612ed884610e2a565b612ee291906145ed565b9050600060076000848152602001908152602001600020549050818114612fc7576000600660008673ffffffffffffffffffffffffffffffffffffffff1673ffffffffffffffffffffffffffffffffffffffff168152602001908152602001600020600084815260200190815260200160002054905080600660008773ffffffffffffffffffffffffffffffffffffffff1673ffffffffffffffffffffffffffffffffffffffff168152602001908152602001600020600084815260200190815260200160002081905550816007600083815260200190815260200160002081905550505b6007600084815260200190815260200160002060009055600660008573ffffffffffffffffffffffffffffffffffffffff1673ffffffffffffffffffffffffffffffffffffffff16815260200190815260200160002060008381526020019081526020016000206000905550505050565b6000600160088054905061304c91906145ed565b90506000600960008481526020019081526020016000205490506000600883815481106130a2577f4e487b7100000000000000000000000000000000000000000000000000000000600052603260045260246000fd5b9060005260206000200154905080600883815481106130ea577f4e487b7100000000000000000000000000000000000000000000000000000000600052603260045260246000fd5b90600052602060002001819055508160096000838152602001908152602001600020819055506009600085815260200190815260200160002060009055600880548061315f577f4e487b7100000000000000000000000000000000000000000000000000000000600052603160045260246000fd5b6001900381819060005260206000200160009055905550505050565b600061318683610e2a565b905081600660008573ffffffffffffffffffffffffffffffffffffffff1673ffffffffffffffffffffffffffffffffffffffff168152602001908152602001600020600083815260200190815260200160002081905550806007600084815260200190815260200160002081905550505050565b828054613206906146ee565b90600052602060002090601f016020900481019282613228576000855561326f565b82601f1061324157805160ff191683800117855561326f565b8280016001018555821561326f579182015b8281111561326e578251825591602001919060010190613253565b5b50905061327c9190613280565b5090565b5b80821115613299576000816000905550600101613281565b5090565b60006132b06132ab84614405565b6143e0565b9050808382526020820190508260005b858110156132f057813585016132d688826134b4565b8452602084019350602083019250506001810190506132c0565b5050509392505050565b600061330d61330884614431565b6143e0565b9050808382526020820190508285602086028201111561332c57600080fd5b60005b8581101561335c578161334288826134de565b84526020840193506020830192505060018101905061332f565b5050509392505050565b60006133796133748461445d565b6143e0565b90508281526020810184848401111561339157600080fd5b61339c8482856146ac565b509392505050565b60006133b76133b28461448e565b6143e0565b9050828152602081018484840111156133cf57600080fd5b6133da8482856146ac565b509392505050565b6000813590506133f181614f11565b92915050565b600082601f83011261340857600080fd5b813561341884826020860161329d565b91505092915050565b600082601f83011261343257600080fd5b81356134428482602086016132fa565b91505092915050565b60008135905061345a81614f28565b92915050565b60008135905061346f81614f3f565b92915050565b60008151905061348481614f3f565b92915050565b600082601f83011261349b57600080fd5b81356134ab848260208601613366565b91505092915050565b600082601f8301126134c557600080fd5b81356134d58482602086016133a4565b91505092915050565b6000813590506134ed81614f56565b92915050565b60006020828403121561350557600080fd5b6000613513848285016133e2565b91505092915050565b6000806040838503121561352f57600080fd5b600061353d858286016133e2565b925050602061354e858286016133e2565b9150509250929050565b60008060006060848603121561356d57600080fd5b600061357b868287016133e2565b935050602061358c868287016133e2565b925050604061359d868287016134de565b9150509250925092565b600080600080608085870312156135bd57600080fd5b60006135cb878288016133e2565b94505060206135dc878288016133e2565b93505060406135ed878288016134de565b925050606085013567ffffffffffffffff81111561360a57600080fd5b6136168782880161348a565b91505092959194509250565b6000806040838503121561363557600080fd5b6000613643858286016133e2565b92505060206136548582860161344b565b9150509250929050565b6000806040838503121561367157600080fd5b600061367f858286016133e2565b9250506020613690858286016134de565b9150509250929050565b600080604083850312156136ad57600080fd5b600083013567ffffffffffffffff8111156136c757600080fd5b6136d385828601613421565b925050602083013567ffffffffffffffff8111156136f057600080fd5b6136fc858286016133f7565b9150509250929050565b60008060006060848603121561371b57600080fd5b600084013567ffffffffffffffff81111561373557600080fd5b61374186828701613421565b935050602084013567ffffffffffffffff81111561375e57600080fd5b61376a868287016133f7565b925050604084013567ffffffffffffffff81111561378757600080fd5b6137938682870161348a565b9150509250925092565b6000602082840312156137af57600080fd5b60006137bd84828501613460565b91505092915050565b6000602082840312156137d857600080fd5b60006137e684828501613475565b91505092915050565b60006020828403121561380157600080fd5b600082013567ffffffffffffffff81111561381b57600080fd5b613827848285016134b4565b91505092915050565b60006020828403121561384257600080fd5b6000613850848285016134de565b91505092915050565b60006138658383613e81565b60208301905092915050565b600061387d8383613e9f565b60208301905092915050565b61389281614621565b82525050565b6138a96138a482614621565b61479a565b82525050565b60006138ba826144e4565b6138c48185614512565b93506138cf836144bf565b8060005b838110156139005781516138e78882613859565b97506138f283614505565b9250506001810190506138d3565b5085935050505092915050565b6000613918826144e4565b6139228185614523565b935061392d836144bf565b8060005b8381101561395e5781516139458882613871565b975061395083614505565b925050600181019050613931565b5085935050505092915050565b61397481614633565b82525050565b6139838161463f565b82525050565b61399a6139958261463f565b6147ac565b82525050565b60006139ab826144ef565b6139b5818561452e565b93506139c58185602086016146bb565b6139ce816148b5565b840191505092915050565b60006139e4826144ef565b6139ee818561453f565b93506139fe8185602086016146bb565b80840191505092915050565b6000613a15826144fa565b613a1f818561454a565b9350613a2f8185602086016146bb565b613a38816148b5565b840191505092915050565b6000613a4e826144fa565b613a58818561455b565b9350613a688185602086016146bb565b80840191505092915050565b60008154613a81816146ee565b613a8b818661455b565b94506001821660008114613aa65760018114613ab757613aea565b60ff19831686528186019350613aea565b613ac0856144cf565b60005b83811015613ae257815481890152600182019150602081019050613ac3565b838801955050505b50505092915050565b6000613b00601b8361454a565b9150613b0b826148d3565b602082019050919050565b6000613b23601c8361455b565b9150613b2e826148fc565b601c82019050919050565b6000613b46602b8361454a565b9150613b5182614925565b604082019050919050565b6000613b6960328361454a565b9150613b7482614974565b604082019050919050565b6000613b8c60268361454a565b9150613b97826149c3565b604082019050919050565b6000613baf601c8361454a565b9150613bba82614a12565b602082019050919050565b6000613bd2600f8361454a565b9150613bdd82614a3b565b602082019050919050565b6000613bf560128361454a565b9150613c0082614a64565b602082019050919050565b6000613c1860248361454a565b9150613c2382614a8d565b604082019050919050565b6000613c3b60198361454a565b9150613c4682614adc565b602082019050919050565b6000613c5e600b8361454a565b9150613c6982614b05565b602082019050919050565b6000613c81602c8361454a565b9150613c8c82614b2e565b604082019050919050565b6000613ca460388361454a565b9150613caf82614b7d565b604082019050919050565b6000613cc7602a8361454a565b9150613cd282614bcc565b604082019050919050565b6000613cea60298361454a565b9150613cf582614c1b565b604082019050919050565b6000613d0d60208361454a565b9150613d1882614c6a565b602082019050919050565b6000613d30602c8361454a565b9150613d3b82614c93565b604082019050919050565b6000613d5360208361454a565b9150613d5e82614ce2565b602082019050919050565b6000613d76600e8361454a565b9150613d8182614d0b565b602082019050919050565b6000613d9960298361454a565b9150613da482614d34565b604082019050919050565b6000613dbc60218361454a565b9150613dc782614d83565b604082019050919050565b6000613ddf60318361454a565b9150613dea82614dd2565b604082019050919050565b6000613e0260188361454a565b9150613e0d82614e21565b602082019050919050565b6000613e25602c8361454a565b9150613e3082614e4a565b604082019050919050565b6000613e4860128361454a565b9150613e5382614e99565b602082019050919050565b6000613e6b60308361454a565b9150613e7682614ec2565b604082019050919050565b613e8a81614695565b82525050565b613e9981614695565b82525050565b613ea881614695565b82525050565b613eb78161469f565b82525050565b6000613ec98285613898565b601482019150613ed982846139d9565b91508190509392505050565b6000613ef1828461390d565b915081905092915050565b6000613f0882856139d9565b9150613f148284613a43565b91508190509392505050565b6000613f2c8285613a74565b9150613f388284613a43565b91508190509392505050565b6000613f4f82613b16565b9150613f5b8284613989565b60208201915081905092915050565b6000602082019050613f7f6000830184613889565b92915050565b6000608082019050613f9a6000830187613889565b613fa76020830186613889565b613fb46040830185613e90565b8181036060830152613fc681846139a0565b905095945050505050565b6000604082019050613fe66000830185613889565b8181036020830152613ff88184613a0a565b90509392505050565b6000602082019050818103600083015261401b81846138af565b905092915050565b6000602082019050614038600083018461396b565b92915050565b6000608082019050614053600083018761397a565b6140606020830186613eae565b61406d604083018561397a565b61407a606083018461397a565b95945050505050565b6000602082019050818103600083015261409d8184613a0a565b905092915050565b600060208201905081810360008301526140be81613af3565b9050919050565b600060208201905081810360008301526140de81613b39565b9050919050565b600060208201905081810360008301526140fe81613b5c565b9050919050565b6000602082019050818103600083015261411e81613b7f565b9050919050565b6000602082019050818103600083015261413e81613ba2565b9050919050565b6000602082019050818103600083015261415e81613bc5565b9050919050565b6000602082019050818103600083015261417e81613be8565b9050919050565b6000602082019050818103600083015261419e81613c0b565b9050919050565b600060208201905081810360008301526141be81613c2e565b9050919050565b600060208201905081810360008301526141de81613c51565b9050919050565b600060208201905081810360008301526141fe81613c74565b9050919050565b6000602082019050818103600083015261421e81613c97565b9050919050565b6000602082019050818103600083015261423e81613cba565b9050919050565b6000602082019050818103600083015261425e81613cdd565b9050919050565b6000602082019050818103600083015261427e81613d00565b9050919050565b6000602082019050818103600083015261429e81613d23565b9050919050565b600060208201905081810360008301526142be81613d46565b9050919050565b600060208201905081810360008301526142de81613d69565b9050919050565b600060208201905081810360008301526142fe81613d8c565b9050919050565b6000602082019050818103600083015261431e81613daf565b9050919050565b6000602082019050818103600083015261433e81613dd2565b9050919050565b6000602082019050818103600083015261435e81613df5565b9050919050565b6000602082019050818103600083015261437e81613e18565b9050919050565b6000602082019050818103600083015261439e81613e3b565b9050919050565b600060208201905081810360008301526143be81613e5e565b9050919050565b60006020820190506143da6000830184613e90565b92915050565b60006143ea6143fb565b90506143f68282614720565b919050565b6000604051905090565b600067ffffffffffffffff8211156144205761441f614886565b5b602082029050602081019050919050565b600067ffffffffffffffff82111561444c5761444b614886565b5b602082029050602081019050919050565b600067ffffffffffffffff82111561447857614477614886565b5b614481826148b5565b9050602081019050919050565b600067ffffffffffffffff8211156144a9576144a8614886565b5b6144b2826148b5565b9050602081019050919050565b6000819050602082019050919050565b60008190508160005260206000209050919050565b600081519050919050565b600081519050919050565b600081519050919050565b6000602082019050919050565b600082825260208201905092915050565b600081905092915050565b600082825260208201905092915050565b600081905092915050565b600082825260208201905092915050565b600081905092915050565b600061457182614695565b915061457c83614695565b9250827fffffffffffffffffffffffffffffffffffffffffffffffffffffffffffffffff038211156145b1576145b06147f9565b5b828201905092915050565b60006145c782614695565b91506145d283614695565b9250826145e2576145e1614828565b5b828204905092915050565b60006145f882614695565b915061460383614695565b925082821015614616576146156147f9565b5b828203905092915050565b600061462c82614675565b9050919050565b60008115159050919050565b6000819050919050565b60007fffffffff0000000000000000000000000000000000000000000000000000000082169050919050565b600073ffffffffffffffffffffffffffffffffffffffff82169050919050565b6000819050919050565b600060ff82169050919050565b82818337600083830152505050565b60005b838110156146d95780820151818401526020810190506146be565b838111156146e8576000848401525b50505050565b6000600282049050600182168061470657607f821691505b6020821081141561471a57614719614857565b5b50919050565b614729826148b5565b810181811067ffffffffffffffff8211171561474857614747614886565b5b80604052505050565b600061475c82614695565b91507fffffffffffffffffffffffffffffffffffffffffffffffffffffffffffffffff82141561478f5761478e6147f9565b5b600182019050919050565b60006147a5826147b6565b9050919050565b6000819050919050565b60006147c1826148c6565b9050919050565b60006147d382614695565b91506147de83614695565b9250826147ee576147ed614828565b5b828206905092915050565b7f4e487b7100000000000000000000000000000000000000000000000000000000600052601160045260246000fd5b7f4e487b7100000000000000000000000000000000000000000000000000000000600052601260045260246000fd5b7f4e487b7100000000000000000000000000000000000000000000000000000000600052602260045260246000fd5b7f4e487b7100000000000000000000000000000000000000000000000000000000600052604160045260246000fd5b6000601f19601f8301169050919050565b60008160601b9050919050565b7f517565727920666f72206e6f6e6578697374656e7420746f6b656e0000000000600082015250565b7f19457468657265756d205369676e6564204d6573736167653a0a333200000000600082015250565b7f455243373231456e756d657261626c653a206f776e657220696e646578206f7560008201527f74206f6620626f756e6473000000000000000000000000000000000000000000602082015250565b7f4552433732313a207472616e7366657220746f206e6f6e20455243373231526560008201527f63656976657220696d706c656d656e7465720000000000000000000000000000602082015250565b7f4f776e61626c653a206e6577206f776e657220697320746865207a65726f206160008201527f6464726573730000000000000000000000000000000000000000000000000000602082015250565b7f4552433732313a20746f6b656e20616c7265616479206d696e74656400000000600082015250565b7f42617365555249206e6f74207365740000000000000000000000000000000000600082015250565b7f496e76616c69642061727261792073697a650000000000000000000000000000600082015250565b7f4552433732313a207472616e7366657220746f20746865207a65726f2061646460008201527f7265737300000000000000000000000000000000000000000000000000000000602082015250565b7f4552433732313a20617070726f766520746f2063616c6c657200000000000000600082015250565b7f496e76616c696420444e41000000000000000000000000000000000000000000600082015250565b7f4552433732313a206f70657261746f7220717565727920666f72206e6f6e657860008201527f697374656e7420746f6b656e0000000000000000000000000000000000000000602082015250565b7f4552433732313a20617070726f76652063616c6c6572206973206e6f74206f7760008201527f6e6572206e6f7220617070726f76656420666f7220616c6c0000000000000000602082015250565b7f4552433732313a2062616c616e636520717565727920666f7220746865207a6560008201527f726f206164647265737300000000000000000000000000000000000000000000602082015250565b7f4552433732313a206f776e657220717565727920666f72206e6f6e657869737460008201527f656e7420746f6b656e0000000000000000000000000000000000000000000000602082015250565b7f4552433732313a206d696e7420746f20746865207a65726f2061646472657373600082015250565b7f4552433732313a20617070726f76656420717565727920666f72206e6f6e657860008201527f697374656e7420746f6b656e0000000000000000000000000000000000000000602082015250565b7f4f776e61626c653a2063616c6c6572206973206e6f7420746865206f776e6572600082015250565b7f496e76616c696420616363657373000000000000000000000000000000000000600082015250565b7f4552433732313a207472616e73666572206f6620746f6b656e2074686174206960008201527f73206e6f74206f776e0000000000000000000000000000000000000000000000602082015250565b7f4552433732313a20617070726f76616c20746f2063757272656e74206f776e6560008201527f7200000000000000000000000000000000000000000000000000000000000000602082015250565b7f4552433732313a207472616e736665722063616c6c6572206973206e6f74206f60008201527f776e6572206e6f7220617070726f766564000000000000000000000000000000602082015250565b7f496e76616c6964207369676e6174757265206c656e6774680000000000000000600082015250565b7f455243373231456e756d657261626c653a20676c6f62616c20696e646578206f60008201527f7574206f6620626f756e64730000000000000000000000000000000000000000602082015250565b7f446e61206e6f7420726567697374657265640000000000000000000000000000600082015250565b7f4552433732314275726e61626c653a2063616c6c6572206973206e6f74206f7760008201527f6e6572206e6f7220617070726f76656400000000000000000000000000000000602082015250565b614f1a81614621565b8114614f2557600080fd5b50565b614f3181614633565b8114614f3c57600080fd5b50565b614f4881614649565b8114614f5357600080fd5b50565b614f5f81614695565b8114614f6a57600080fd5b5056fea26469706673582212206731428ae02e4a83fdcb19a8bde844de2de15c7a763db9a3e8266181b33ae90264736f6c63430008030033",
  "linkReferences": {},
  "deployedLinkReferences": {}
}