{
  "_format": "hh-sol-artifact-1",
  "contractName": "Presale",
  "sourceName": "contracts/Presale.sol",
  "abi": [
    {
      "inputs": [
        {
          "internalType": "contract IToken",
          "name": "token_",
          "type": "address"
        },
        {
          "internalType": "contract IERC20",
          "name": "weth_",
          "type": "address"
        },
        {
          "internalType": "address",
          "name": "wallet_",
          "type": "address"
        },
        {
          "internalType": "address",
          "name": "signer_",
          "type": "address"
        }
      ],
      "stateMutability": "nonpayable",
      "type": "constructor"
    },
    {
      "anonymous": false,
      "inputs": [
        {
          "indexed": false,
          "internalType": "uint8",
          "name": "round",
          "type": "uint8"
        },
        {
          "indexed": false,
          "internalType": "uint32",
          "name": "cap",
          "type": "uint32"
        },
        {
          "indexed": false,
          "internalType": "uint128",
          "name": "openingTime",
          "type": "uint128"
        },
        {
          "indexed": false,
          "internalType": "uint128",
          "name": "closingTime",
          "type": "uint128"
        },
        {
          "indexed": false,
          "internalType": "uint256",
          "name": "price",
          "type": "uint256"
        },
        {
          "indexed": false,
          "internalType": "bool",
          "name": "isPublicSale",
          "type": "bool"
        }
      ],
      "name": "NewPresale",
      "type": "event"
    },
    {
      "anonymous": false,
      "inputs": [
        {
          "indexed": true,
          "internalType": "address",
          "name": "previousOwner",
          "type": "address"
        },
        {
          "indexed": true,
          "internalType": "address",
          "name": "newOwner",
          "type": "address"
        }
      ],
      "name": "OwnershipTransferred",
      "type": "event"
    },
    {
      "anonymous": false,
      "inputs": [
        {
          "indexed": false,
          "internalType": "address",
          "name": "account",
          "type": "address"
        }
      ],
      "name": "Paused",
      "type": "event"
    },
    {
      "anonymous": false,
      "inputs": [
        {
          "indexed": true,
          "internalType": "address",
          "name": "purchaser",
          "type": "address"
        },
        {
          "indexed": true,
          "internalType": "uint8",
          "name": "round",
          "type": "uint8"
        },
        {
          "indexed": false,
          "internalType": "uint256",
          "name": "amount",
          "type": "uint256"
        },
        {
          "indexed": false,
          "internalType": "uint256",
          "name": "cost",
          "type": "uint256"
        }
      ],
      "name": "Purchase",
      "type": "event"
    },
    {
      "anonymous": false,
      "inputs": [
        {
          "indexed": false,
          "internalType": "address",
          "name": "account",
          "type": "address"
        }
      ],
      "name": "Unpaused",
      "type": "event"
    },
    {
      "inputs": [
        {
          "internalType": "uint256",
          "name": "amount",
          "type": "uint256"
        },
        {
          "internalType": "bytes",
          "name": "whitelistSig",
          "type": "bytes"
        }
      ],
      "name": "buyNFT",
      "outputs": [],
      "stateMutability": "nonpayable",
      "type": "function"
    },
    {
      "inputs": [],
      "name": "cap",
      "outputs": [
        {
          "internalType": "uint32",
          "name": "",
          "type": "uint32"
        }
      ],
      "stateMutability": "view",
      "type": "function"
    },
    {
      "inputs": [],
      "name": "closingTime",
      "outputs": [
        {
          "internalType": "uint128",
          "name": "",
          "type": "uint128"
        }
      ],
      "stateMutability": "view",
      "type": "function"
    },
    {
      "inputs": [],
      "name": "getTime",
      "outputs": [
        {
          "internalType": "uint256",
          "name": "",
          "type": "uint256"
        }
      ],
      "stateMutability": "view",
      "type": "function"
    },
    {
      "inputs": [],
      "name": "isOpen",
      "outputs": [
        {
          "internalType": "bool",
          "name": "",
          "type": "bool"
        }
      ],
      "stateMutability": "view",
      "type": "function"
    },
    {
      "inputs": [],
      "name": "isPublicSale",
      "outputs": [
        {
          "internalType": "bool",
          "name": "",
          "type": "bool"
        }
      ],
      "stateMutability": "view",
      "type": "function"
    },
    {
      "inputs": [],
      "name": "openingTime",
      "outputs": [
        {
          "internalType": "uint128",
          "name": "",
          "type": "uint128"
        }
      ],
      "stateMutability": "view",
      "type": "function"
    },
    {
      "inputs": [],
      "name": "owner",
      "outputs": [
        {
          "internalType": "address",
          "name": "",
          "type": "address"
        }
      ],
      "stateMutability": "view",
      "type": "function"
    },
    {
      "inputs": [],
      "name": "pause",
      "outputs": [],
      "stateMutability": "nonpayable",
      "type": "function"
    },
    {
      "inputs": [],
      "name": "paused",
      "outputs": [
        {
          "internalType": "bool",
          "name": "",
          "type": "bool"
        }
      ],
      "stateMutability": "view",
      "type": "function"
    },
    {
      "inputs": [],
      "name": "price",
      "outputs": [
        {
          "internalType": "uint256",
          "name": "",
          "type": "uint256"
        }
      ],
      "stateMutability": "view",
      "type": "function"
    },
    {
      "inputs": [],
      "name": "renounceOwnership",
      "outputs": [],
      "stateMutability": "nonpayable",
      "type": "function"
    },
    {
      "inputs": [],
      "name": "round",
      "outputs": [
        {
          "internalType": "uint8",
          "name": "",
          "type": "uint8"
        }
      ],
      "stateMutability": "view",
      "type": "function"
    },
    {
      "inputs": [
        {
          "internalType": "uint128",
          "name": "openingTime_",
          "type": "uint128"
        },
        {
          "internalType": "uint128",
          "name": "closingTime_",
          "type": "uint128"
        },
        {
          "internalType": "uint256",
          "name": "price_",
          "type": "uint256"
        },
        {
          "internalType": "uint32",
          "name": "cap_",
          "type": "uint32"
        },
        {
          "internalType": "uint8",
          "name": "round_",
          "type": "uint8"
        },
        {
          "internalType": "bool",
          "name": "isPublicSale_",
          "type": "bool"
        }
      ],
      "name": "setPresale",
      "outputs": [],
      "stateMutability": "nonpayable",
      "type": "function"
    },
    {
      "inputs": [
        {
          "internalType": "address",
          "name": "signer_",
          "type": "address"
        }
      ],
      "name": "setSigner",
      "outputs": [],
      "stateMutability": "nonpayable",
      "type": "function"
    },
    {
      "inputs": [],
      "name": "signer",
      "outputs": [
        {
          "internalType": "address",
          "name": "",
          "type": "address"
        }
      ],
      "stateMutability": "view",
      "type": "function"
    },
    {
      "inputs": [],
      "name": "sold",
      "outputs": [
        {
          "internalType": "uint32",
          "name": "",
          "type": "uint32"
        }
      ],
      "stateMutability": "view",
      "type": "function"
    },
    {
      "inputs": [],
      "name": "token",
      "outputs": [
        {
          "internalType": "contract IToken",
          "name": "",
          "type": "address"
        }
      ],
      "stateMutability": "view",
      "type": "function"
    },
    {
      "inputs": [
        {
          "internalType": "address",
          "name": "newOwner",
          "type": "address"
        }
      ],
      "name": "transferOwnership",
      "outputs": [],
      "stateMutability": "nonpayable",
      "type": "function"
    },
    {
      "inputs": [],
      "name": "unpause",
      "outputs": [],
      "stateMutability": "nonpayable",
      "type": "function"
    },
    {
      "inputs": [
        {
          "internalType": "address",
          "name": "wallet_",
          "type": "address"
        }
      ],
      "name": "updateWallet",
      "outputs": [],
      "stateMutability": "nonpayable",
      "type": "function"
    },
    {
      "inputs": [],
      "name": "wallet",
      "outputs": [
        {
          "internalType": "address",
          "name": "",
          "type": "address"
        }
      ],
      "stateMutability": "view",
      "type": "function"
    },
    {
      "inputs": [],
      "name": "weth",
      "outputs": [
        {
          "internalType": "contract IERC20",
          "name": "",
          "type": "address"
        }
      ],
      "stateMutability": "view",
      "type": "function"
    },
    {
      "inputs": [],
      "name": "withdrawFunds",
      "outputs": [],
      "stateMutability": "nonpayable",
      "type": "function"
    }
  ],
  "bytecode": "0x60c06040523480156200001157600080fd5b506040516200299c3803806200299c83398181016040528101906200003791906200027c565b620000576200004b6200016b60201b60201c565b6200017360201b60201c565b60008060146101000a81548160ff0219169083151502179055508373ffffffffffffffffffffffffffffffffffffffff1660808173ffffffffffffffffffffffffffffffffffffffff1660601b815250508273ffffffffffffffffffffffffffffffffffffffff1660a08173ffffffffffffffffffffffffffffffffffffffff1660601b8152505081600360006101000a81548173ffffffffffffffffffffffffffffffffffffffff021916908373ffffffffffffffffffffffffffffffffffffffff16021790555080600460006101000a81548173ffffffffffffffffffffffffffffffffffffffff021916908373ffffffffffffffffffffffffffffffffffffffff1602179055505050505062000392565b600033905090565b60008060009054906101000a900473ffffffffffffffffffffffffffffffffffffffff169050816000806101000a81548173ffffffffffffffffffffffffffffffffffffffff021916908373ffffffffffffffffffffffffffffffffffffffff1602179055508173ffffffffffffffffffffffffffffffffffffffff168173ffffffffffffffffffffffffffffffffffffffff167f8be0079c531659141344cd1fd0a4f28419497f9722a3daafe3b4186f6b6457e060405160405180910390a35050565b600081519050620002488162000344565b92915050565b6000815190506200025f816200035e565b92915050565b600081519050620002768162000378565b92915050565b600080600080608085870312156200029357600080fd5b6000620002a38782880162000265565b9450506020620002b6878288016200024e565b9350506040620002c98782880162000237565b9250506060620002dc8782880162000237565b91505092959194509250565b6000620002f58262000324565b9050919050565b60006200030982620002e8565b9050919050565b60006200031d82620002e8565b9050919050565b600073ffffffffffffffffffffffffffffffffffffffff82169050919050565b6200034f81620002e8565b81146200035b57600080fd5b50565b6200036981620002fc565b81146200037557600080fd5b50565b620003838162000310565b81146200038f57600080fd5b50565b60805160601c60a05160601c6125c2620003da600039600081816104a20152818161054d01528181610a580152610d09015260008181610db9015261115101526125c26000f3fe608060405234801561001057600080fd5b50600436106101585760003560e01c80635c975abb116100c35780638da5cb5b1161007c5780638da5cb5b14610321578063a035b1fe1461033f578063a5a865dc1461035d578063b7a8807c1461037b578063f2fde38b14610399578063fc0c546a146103b557610158565b80635c975abb1461029b5780636c19e783146102b9578063715018a6146102d5578063815d889e146102df5780638456cb59146102fb578063848b86e31461030557610158565b80633f4ba83a116101155780633f4ba83a146101fb5780633fc8cef31461020557806347535d7b146102235780634b6753bc14610241578063521eb2731461025f578063557ed1ba1461027d57610158565b806302c7e7af1461015d578063146ca5311461017b578063238ac9331461019957806324600fc3146101b75780632655c7b9146101c1578063355274ea146101dd575b600080fd5b6101656103d3565b6040516101729190611f4e565b60405180910390f35b6101836103e9565b6040516101909190611f69565b60405180910390f35b6101a16103fc565b6040516101ae9190611c5e565b60405180910390f35b6101bf610422565b005b6101db60048036038101906101d69190611862565b61061e565b005b6101e56109ba565b6040516101f29190611f4e565b60405180910390f35b6102036109d0565b005b61020d610a56565b60405161021a9190611d39565b60405180910390f35b61022b610a7a565b6040516102389190611cd9565b60405180910390f35b610249610af1565b6040516102569190611eef565b60405180910390f35b610267610b13565b6040516102749190611c5e565b60405180910390f35b610285610b39565b6040516102929190611f0a565b60405180910390f35b6102a3610b41565b6040516102b09190611cd9565b60405180910390f35b6102d360048036038101906102ce9190611810565b610b57565b005b6102dd610c17565b005b6102f960048036038101906102f49190611914565b610c9f565b005b610303610ead565b005b61031f600480360381019061031a9190611810565b610f33565b005b610329610ff3565b6040516103369190611c5e565b60405180910390f35b61034761101c565b6040516103549190611f0a565b60405180910390f35b610365611022565b6040516103729190611cd9565b60405180910390f35b610383611035565b6040516103909190611eef565b60405180910390f35b6103b360048036038101906103ae9190611810565b611057565b005b6103bd61114f565b6040516103ca9190611d54565b60405180910390f35b600460189054906101000a900463ffffffff1681565b6004601c9054906101000a900460ff1681565b600460009054906101000a900473ffffffffffffffffffffffffffffffffffffffff1681565b61042a611173565b73ffffffffffffffffffffffffffffffffffffffff16610448610ff3565b73ffffffffffffffffffffffffffffffffffffffff161461049e576040517f08c379a000000000000000000000000000000000000000000000000000000000815260040161049590611e2f565b60405180910390fd5b60007f000000000000000000000000000000000000000000000000000000000000000073ffffffffffffffffffffffffffffffffffffffff166370a08231306040518263ffffffff1660e01b81526004016104f99190611c5e565b60206040518083038186803b15801561051157600080fd5b505afa158015610525573d6000803e3d6000fd5b505050506040513d601f19601f8201168201806040525081019061054991906118eb565b90507f000000000000000000000000000000000000000000000000000000000000000073ffffffffffffffffffffffffffffffffffffffff1663a9059cbb600360009054906101000a900473ffffffffffffffffffffffffffffffffffffffff16836040518363ffffffff1660e01b81526004016105c8929190611cb0565b602060405180830381600087803b1580156105e257600080fd5b505af11580156105f6573d6000803e3d6000fd5b505050506040513d601f19601f8201168201806040525081019061061a9190611839565b5050565b610626611173565b73ffffffffffffffffffffffffffffffffffffffff16610644610ff3565b73ffffffffffffffffffffffffffffffffffffffff161461069a576040517f08c379a000000000000000000000000000000000000000000000000000000000815260040161069190611e2f565b60405180910390fd5b6106a2610a7a565b15806106b257506106b1610b41565b5b6106f1576040517f08c379a00000000000000000000000000000000000000000000000000000000081526004016106e890611eaf565b60405180910390fd5b6106f9610a7a565b61083357856fffffffffffffffffffffffffffffffff16856fffffffffffffffffffffffffffffffff161015610764576040517f08c379a000000000000000000000000000000000000000000000000000000000815260040161075b90611e0f565b60405180910390fd5b42866fffffffffffffffffffffffffffffffff16116107b8576040517f08c379a00000000000000000000000000000000000000000000000000000000081526004016107af90611def565b60405180910390fd5b85600160006101000a8154816fffffffffffffffffffffffffffffffff02191690836fffffffffffffffffffffffffffffffff160217905550816004601c6101000a81548160ff021916908360ff1602179055506000600460186101000a81548163ffffffff021916908363ffffffff160217905550610888565b42856fffffffffffffffffffffffffffffffff1611610887576040517f08c379a000000000000000000000000000000000000000000000000000000000815260040161087e90611e0f565b60405180910390fd5b5b82600460146101000a81548163ffffffff021916908363ffffffff16021790555083600281905550806004601d6101000a81548160ff02191690831515021790555084600160106101000a8154816fffffffffffffffffffffffffffffffff02191690836fffffffffffffffffffffffffffffffff1602179055507fc796c2cdbfab46da96d45c1506bb32a11061f11c055570b34309cf039b89909c6004601c9054906101000a900460ff16600460149054906101000a900463ffffffff16600160009054906101000a90046fffffffffffffffffffffffffffffffff16600160109054906101000a90046fffffffffffffffffffffffffffffffff166002546004601d9054906101000a900460ff166040516109aa96959493929190611f84565b60405180910390a1505050505050565b600460149054906101000a900463ffffffff1681565b6109d8611173565b73ffffffffffffffffffffffffffffffffffffffff166109f6610ff3565b73ffffffffffffffffffffffffffffffffffffffff1614610a4c576040517f08c379a0000000000000000000000000000000000000000000000000000000008152600401610a4390611e2f565b60405180910390fd5b610a5461117b565b565b7f000000000000000000000000000000000000000000000000000000000000000081565b6000600160009054906101000a90046fffffffffffffffffffffffffffffffff166fffffffffffffffffffffffffffffffff164210158015610aec5750600160109054906101000a90046fffffffffffffffffffffffffffffffff166fffffffffffffffffffffffffffffffff164211155b905090565b600160109054906101000a90046fffffffffffffffffffffffffffffffff1681565b600360009054906101000a900473ffffffffffffffffffffffffffffffffffffffff1681565b600042905090565b60008060149054906101000a900460ff16905090565b610b5f611173565b73ffffffffffffffffffffffffffffffffffffffff16610b7d610ff3565b73ffffffffffffffffffffffffffffffffffffffff1614610bd3576040517f08c379a0000000000000000000000000000000000000000000000000000000008152600401610bca90611e2f565b60405180910390fd5b80600460006101000a81548173ffffffffffffffffffffffffffffffffffffffff021916908373ffffffffffffffffffffffffffffffffffffffff16021790555050565b610c1f611173565b73ffffffffffffffffffffffffffffffffffffffff16610c3d610ff3565b73ffffffffffffffffffffffffffffffffffffffff1614610c93576040517f08c379a0000000000000000000000000000000000000000000000000000000008152600401610c8a90611e2f565b60405180910390fd5b610c9d600061121c565b565b6000610ca9611173565b9050600083600254610cbb9190612091565b9050610cc88285856112e0565b83600460188282829054906101000a900463ffffffff16610ce99190612057565b92506101000a81548163ffffffff021916908363ffffffff1602179055507f000000000000000000000000000000000000000000000000000000000000000073ffffffffffffffffffffffffffffffffffffffff166323b872dd8330846040518463ffffffff1660e01b8152600401610d6493929190611c79565b602060405180830381600087803b158015610d7e57600080fd5b505af1158015610d92573d6000803e3d6000fd5b505050506040513d601f19601f82011682018060405250810190610db69190611839565b507f000000000000000000000000000000000000000000000000000000000000000073ffffffffffffffffffffffffffffffffffffffff1663a144819483866040518363ffffffff1660e01b8152600401610e12929190611cb0565b600060405180830381600087803b158015610e2c57600080fd5b505af1158015610e40573d6000803e3d6000fd5b505050506004601c9054906101000a900460ff1660ff168273ffffffffffffffffffffffffffffffffffffffff167f3d60765a278f9d0bc631ef54bbbded8c7ae1bc91f027d10d6dfd053c0e1756488684604051610e9f929190611f25565b60405180910390a350505050565b610eb5611173565b73ffffffffffffffffffffffffffffffffffffffff16610ed3610ff3565b73ffffffffffffffffffffffffffffffffffffffff1614610f29576040517f08c379a0000000000000000000000000000000000000000000000000000000008152600401610f2090611e2f565b60405180910390fd5b610f316114a6565b565b610f3b611173565b73ffffffffffffffffffffffffffffffffffffffff16610f59610ff3565b73ffffffffffffffffffffffffffffffffffffffff1614610faf576040517f08c379a0000000000000000000000000000000000000000000000000000000008152600401610fa690611e2f565b60405180910390fd5b80600360006101000a81548173ffffffffffffffffffffffffffffffffffffffff021916908373ffffffffffffffffffffffffffffffffffffffff16021790555050565b60008060009054906101000a900473ffffffffffffffffffffffffffffffffffffffff16905090565b60025481565b6004601d9054906101000a900460ff1681565b600160009054906101000a90046fffffffffffffffffffffffffffffffff1681565b61105f611173565b73ffffffffffffffffffffffffffffffffffffffff1661107d610ff3565b73ffffffffffffffffffffffffffffffffffffffff16146110d3576040517f08c379a00000000000000000000000000000000000000000000000000000000081526004016110ca90611e2f565b60405180910390fd5b600073ffffffffffffffffffffffffffffffffffffffff168173ffffffffffffffffffffffffffffffffffffffff161415611143576040517f08c379a000000000000000000000000000000000000000000000000000000000815260040161113a90611daf565b60405180910390fd5b61114c8161121c565b50565b7f000000000000000000000000000000000000000000000000000000000000000081565b600033905090565b611183610b41565b6111c2576040517f08c379a00000000000000000000000000000000000000000000000000000000081526004016111b990611d8f565b60405180910390fd5b60008060146101000a81548160ff0219169083151502179055507f5db9ee0a495bf2e6ff9c91a7834c1ba4fdd244a5e8aa4e537bd38aeae4b073aa611205611173565b6040516112129190611c5e565b60405180910390a1565b60008060009054906101000a900473ffffffffffffffffffffffffffffffffffffffff169050816000806101000a81548173ffffffffffffffffffffffffffffffffffffffff021916908373ffffffffffffffffffffffffffffffffffffffff1602179055508173ffffffffffffffffffffffffffffffffffffffff168173ffffffffffffffffffffffffffffffffffffffff167f8be0079c531659141344cd1fd0a4f28419497f9722a3daafe3b4186f6b6457e060405160405180910390a35050565b6112e8610b41565b15611328576040517f08c379a000000000000000000000000000000000000000000000000000000000815260040161131f90611dcf565b60405180910390fd5b611330610a7a565b61136f576040517f08c379a000000000000000000000000000000000000000000000000000000000815260040161136690611d6f565b60405180910390fd5b6004601d9054906101000a900460ff166113d357600061138f8483611549565b9050806113d1576040517f08c379a00000000000000000000000000000000000000000000000000000000081526004016113c890611e4f565b60405180910390fd5b505b6000821180156113e45750600a8211155b611423576040517f08c379a000000000000000000000000000000000000000000000000000000000815260040161141a90611ecf565b60405180910390fd5b600460149054906101000a900463ffffffff1663ffffffff1682600460189054906101000a900463ffffffff1661145a9190612057565b63ffffffff1611156114a1576040517f08c379a000000000000000000000000000000000000000000000000000000000815260040161149890611e6f565b60405180910390fd5b505050565b6114ae610b41565b156114ee576040517f08c379a00000000000000000000000000000000000000000000000000000000081526004016114e590611dcf565b60405180910390fd5b6001600060146101000a81548160ff0219169083151502179055507f62e78cea01bee320cd4e420270b5ea74000d11b0c9f74754ebdbfc544b05a258611532611173565b60405161153f9190611c5e565b60405180910390a1565b60008083306004601c9054906101000a900460ff1660405160200161157093929190611bfb565b6040516020818303038152906040528051906020012090506000611593826115f9565b9050600460009054906101000a900473ffffffffffffffffffffffffffffffffffffffff1673ffffffffffffffffffffffffffffffffffffffff166115d88286611629565b73ffffffffffffffffffffffffffffffffffffffff16149250505092915050565b60008160405160200161160c9190611c38565b604051602081830303815290604052805190602001209050919050565b60008060008061163885611698565b925092509250600186828585604051600081526020016040526040516116619493929190611cf4565b6020604051602081039080840390855afa158015611683573d6000803e3d6000fd5b50505060206040510351935050505092915050565b600080600060418451146116e1576040517f08c379a00000000000000000000000000000000000000000000000000000000081526004016116d890611e8f565b60405180910390fd5b6020840151925060408401519150606084015160001a90509193909250565b600061171361170e8461200a565b611fe5565b90508281526020810184848401111561172b57600080fd5b6117368482856121be565b509392505050565b60008135905061174d81612502565b92915050565b60008135905061176281612519565b92915050565b60008151905061177781612519565b92915050565b600082601f83011261178e57600080fd5b813561179e848260208601611700565b91505092915050565b6000813590506117b681612530565b92915050565b6000813590506117cb81612547565b92915050565b6000815190506117e081612547565b92915050565b6000813590506117f58161255e565b92915050565b60008135905061180a81612575565b92915050565b60006020828403121561182257600080fd5b60006118308482850161173e565b91505092915050565b60006020828403121561184b57600080fd5b600061185984828501611768565b91505092915050565b60008060008060008060c0878903121561187b57600080fd5b600061188989828a016117a7565b965050602061189a89828a016117a7565b95505060406118ab89828a016117bc565b94505060606118bc89828a016117e6565b93505060806118cd89828a016117fb565b92505060a06118de89828a01611753565b9150509295509295509295565b6000602082840312156118fd57600080fd5b600061190b848285016117d1565b91505092915050565b6000806040838503121561192757600080fd5b6000611935858286016117bc565b925050602083013567ffffffffffffffff81111561195257600080fd5b61195e8582860161177d565b9150509250929050565b611971816120eb565b82525050565b611988611983826120eb565b6121fe565b82525050565b611997816120fd565b82525050565b6119a681612109565b82525050565b6119bd6119b882612109565b612210565b82525050565b6119cc81612176565b82525050565b6119db8161219a565b82525050565b60006119ee60088361203b565b91506119f9826122c7565b602082019050919050565b6000611a1160148361203b565b9150611a1c826122f0565b602082019050919050565b6000611a34601c8361204c565b9150611a3f82612319565b601c82019050919050565b6000611a5760268361203b565b9150611a6282612342565b604082019050919050565b6000611a7a60108361203b565b9150611a8582612391565b602082019050919050565b6000611a9d60148361203b565b9150611aa8826123ba565b602082019050919050565b6000611ac0601b8361203b565b9150611acb826123e3565b602082019050919050565b6000611ae360208361203b565b9150611aee8261240c565b602082019050919050565b6000611b06600e8361203b565b9150611b1182612435565b602082019050919050565b6000611b29600b8361203b565b9150611b348261245e565b602082019050919050565b6000611b4c60188361203b565b9150611b5782612487565b602082019050919050565b6000611b6f600e8361203b565b9150611b7a826124b0565b602082019050919050565b6000611b9260158361203b565b9150611b9d826124d9565b602082019050919050565b611bb181612113565b82525050565b611bc08161214f565b82525050565b611bcf81612159565b82525050565b611bde81612169565b82525050565b611bf5611bf082612169565b61222c565b82525050565b6000611c078286611977565b601482019150611c178285611977565b601482019150611c278284611be4565b600182019150819050949350505050565b6000611c4382611a27565b9150611c4f82846119ac565b60208201915081905092915050565b6000602082019050611c736000830184611968565b92915050565b6000606082019050611c8e6000830186611968565b611c9b6020830185611968565b611ca86040830184611bb7565b949350505050565b6000604082019050611cc56000830185611968565b611cd26020830184611bb7565b9392505050565b6000602082019050611cee600083018461198e565b92915050565b6000608082019050611d09600083018761199d565b611d166020830186611bd5565b611d23604083018561199d565b611d30606083018461199d565b95945050505050565b6000602082019050611d4e60008301846119c3565b92915050565b6000602082019050611d6960008301846119d2565b92915050565b60006020820190508181036000830152611d88816119e1565b9050919050565b60006020820190508181036000830152611da881611a04565b9050919050565b60006020820190508181036000830152611dc881611a4a565b9050919050565b60006020820190508181036000830152611de881611a6d565b9050919050565b60006020820190508181036000830152611e0881611a90565b9050919050565b60006020820190508181036000830152611e2881611ab3565b9050919050565b60006020820190508181036000830152611e4881611ad6565b9050919050565b60006020820190508181036000830152611e6881611af9565b9050919050565b60006020820190508181036000830152611e8881611b1c565b9050919050565b60006020820190508181036000830152611ea881611b3f565b9050919050565b60006020820190508181036000830152611ec881611b62565b9050919050565b60006020820190508181036000830152611ee881611b85565b9050919050565b6000602082019050611f046000830184611ba8565b92915050565b6000602082019050611f1f6000830184611bb7565b92915050565b6000604082019050611f3a6000830185611bb7565b611f476020830184611bb7565b9392505050565b6000602082019050611f636000830184611bc6565b92915050565b6000602082019050611f7e6000830184611bd5565b92915050565b600060c082019050611f996000830189611bd5565b611fa66020830188611bc6565b611fb36040830187611ba8565b611fc06060830186611ba8565b611fcd6080830185611bb7565b611fda60a083018461198e565b979650505050505050565b6000611fef612000565b9050611ffb82826121cd565b919050565b6000604051905090565b600067ffffffffffffffff8211156120255761202461226d565b5b61202e8261229c565b9050602081019050919050565b600082825260208201905092915050565b600081905092915050565b600061206282612159565b915061206d83612159565b92508263ffffffff038211156120865761208561223e565b5b828201905092915050565b600061209c8261214f565b91506120a78361214f565b9250817fffffffffffffffffffffffffffffffffffffffffffffffffffffffffffffffff04831182151516156120e0576120df61223e565b5b828202905092915050565b60006120f68261212f565b9050919050565b60008115159050919050565b6000819050919050565b60006fffffffffffffffffffffffffffffffff82169050919050565b600073ffffffffffffffffffffffffffffffffffffffff82169050919050565b6000819050919050565b600063ffffffff82169050919050565b600060ff82169050919050565b600061218182612188565b9050919050565b60006121938261212f565b9050919050565b60006121a5826121ac565b9050919050565b60006121b78261212f565b9050919050565b82818337600083830152505050565b6121d68261229c565b810181811067ffffffffffffffff821117156121f5576121f461226d565b5b80604052505050565b60006122098261221a565b9050919050565b6000819050919050565b6000612225826122ba565b9050919050565b6000612237826122ad565b9050919050565b7f4e487b7100000000000000000000000000000000000000000000000000000000600052601160045260246000fd5b7f4e487b7100000000000000000000000000000000000000000000000000000000600052604160045260246000fd5b6000601f19601f8301169050919050565b60008160f81b9050919050565b60008160601b9050919050565b7f4e6f74206f70656e000000000000000000000000000000000000000000000000600082015250565b7f5061757361626c653a206e6f7420706175736564000000000000000000000000600082015250565b7f19457468657265756d205369676e6564204d6573736167653a0a333200000000600082015250565b7f4f776e61626c653a206e6577206f776e657220697320746865207a65726f206160008201527f6464726573730000000000000000000000000000000000000000000000000000602082015250565b7f5061757361626c653a2070617573656400000000000000000000000000000000600082015250565b7f496e76616c6964206f70656e696e672074696d65000000000000000000000000600082015250565b7f436c6f73696e672074696d65203c204f70656e696e672074696d650000000000600082015250565b7f4f776e61626c653a2063616c6c6572206973206e6f7420746865206f776e6572600082015250565b7f496e76616c696420616363657373000000000000000000000000000000000000600082015250565b7f4578636565647320636170000000000000000000000000000000000000000000600082015250565b7f496e76616c6964207369676e6174757265206c656e6774680000000000000000600082015250565b7f43616e6e6f7420736574206e6f77000000000000000000000000000000000000600082015250565b7f4d757374206265203e203020616e64203c3d2031300000000000000000000000600082015250565b61250b816120eb565b811461251657600080fd5b50565b612522816120fd565b811461252d57600080fd5b50565b61253981612113565b811461254457600080fd5b50565b6125508161214f565b811461255b57600080fd5b50565b61256781612159565b811461257257600080fd5b50565b61257e81612169565b811461258957600080fd5b5056fea2646970667358221220e2764c50a068c22118dc3c06f5835bd5107b456035e7a2aded3b7e99035317e864736f6c63430008030033",
  "linkReferences": {},
  "deployedLinkReferences": {}
}